:020000040000FA
:06000000831203131F2907
:08000800A0000308A100040898
:10001000A2002720B0308505230884000008860050
:10002000240885040310A40C031C1B282A30A300F9
:100030000830A4001F28A30A000000001F280B118D
:100040002208840021088300A00E200E090005105C
:10005000831605148312051C3F1005183F148316E0
:1000600005108312080064008A0182078434FC347E
:10007000C134C834B8348A348234DC3480348834AF
:100080007F346400BC00BC08031908000301013E72
:10009000031D4728BC0B472864000800383043186C
:1000A0005428051E72285728851F722885130512AB
:1000B0005030013E031D592805168517EF30013ECB
:1000C000031D5F28BC01FC3043186C28051EBC0AC8
:1000D000013E031D64287628851FBC0A013E031DCE
:1000E00064287628013E031D722800307530013ED9
:1000F000031D772804303C060319FF300800BC00BC
:100100000830A9008B13051285133C1805163C18FE
:100110008517BC0CFD30013E031D8B28BC13431812
:100120009428051A95289628851BBC17DC30013EBB
:10013000031D9728051685178B17A90B82283C08E5
:1001400008006400BD000830A9003D082706BC0077
:100150003C0C27080318183ABC003C0CA7000310FD
:10016000BD0C3D086400A90BA62808002830C40077
:100170000A30C2007F30AA007F30AA007F30AA0078
:100180006230AD004120C20BE2280330C200C31C24
:10019000D328C3108730AA009030AB00F230AC00F7
:1001A000FA30AD00DC28C3149030AA00E630AB0072
:1001B000A330AC00E230AD00FA304120C20BDC28A5
:1001C000062108003F18BA28EA200800C00B0800E2
:1001D0000230C000431CF6284310FC30AA00F23065
:1001E000AB00A330AC00E230AD00FF2843148430F4
:1001F000AA00E630AB00A330AC008A30AD0050302E
:100200004120C00BFF280830C00008008B134308B2
:1002100083169A009B011C1555309D00AA309D0045
:100220009C1400009C1811291C1183128B170800C4
:1002300083169B011C141A088312C30008000230A5
:10024000C000C100BF14182107309F008508860830
:100250008B019030850000308600810183168E1559
:10026000203085008601C7308100CD3081008312A7
:100270002A30A3000830A400FF30AA00E230AB000F
:100280009330AC009330AD00A0308B00F0304120B3
:10029000BF1CEA20BF0164006400851EC40B6129F5
:1002A0008B132830C4009030850000308600831600
:1002B0000514831205108B100B1663000B128B10A4
:1002C0001F293F18B620C318E62081014E20FF3AAF
:1002D000031D2429CC307F2044307F20FF30412073
:1002E000FF304120FF3041200830A8006400810128
:1002F0004E20FF3A031D2429CC307F20BE307F20C2
:10030000A701FF307F20A600A120FF307F20A5009D
:10031000A120FF307F20A120FF307F20A120FF30CF
:100320007F20A120FF307F20A120FF307F20A1204F
:10033000FF307F20A120FF307F2027060319A3294B
:10034000A80B762924296400A50CA60CA50CA60CE4
:10035000A50CA60CFF30AA00AB00AC00AD00C10B91
:10036000B7294318AA12431C2A120230C100251CC7
:10037000BD292A11A609A60AC6290310260C9C3EEF
:10038000031CC629C830A602FC30AB000310260CA3
:10039000BD008B13AC013D08BC0003143C08AD004C
:1003A000AC0A0A30BC020318CE29AC03FC302B0681
:1003B000031DE1292C083320AC002D083320AD00AB
:1003C000ED292C083320AB002D083320AC00AC13F2
:0E03D0008430AD008A302618AD008B174C2902
:02400E00103F61
:00000001FF
